{
  "contractName": "Casino",
  "abi": [
    {
      "inputs": [],
      "payable": false,
      "stateMutability": "nonpayable",
      "type": "constructor"
    },
    {
      "constant": true,
      "inputs": [],
      "name": "minBet",
      "outputs": [
        {
          "internalType": "uint256",
          "name": "",
          "type": "uint256"
        }
      ],
      "payable": false,
      "stateMutability": "view",
      "type": "function"
    },
    {
      "constant": true,
      "inputs": [],
      "name": "numOfBets",
      "outputs": [
        {
          "internalType": "uint256",
          "name": "",
          "type": "uint256"
        }
      ],
      "payable": false,
      "stateMutability": "view",
      "type": "function"
    },
    {
      "constant": true,
      "inputs": [],
      "name": "owner",
      "outputs": [
        {
          "internalType": "address",
          "name": "",
          "type": "address"
        }
      ],
      "payable": false,
      "stateMutability": "view",
      "type": "function"
    },
    {
      "constant": true,
      "inputs": [
        {
          "internalType": "address",
          "name": "",
          "type": "address"
        }
      ],
      "name": "playerInputs",
      "outputs": [
        {
          "internalType": "uint256",
          "name": "bet",
          "type": "uint256"
        },
        {
          "internalType": "uint256",
          "name": "choice",
          "type": "uint256"
        },
        {
          "internalType": "bool",
          "name": "winnerFlag",
          "type": "bool"
        }
      ],
      "payable": false,
      "stateMutability": "view",
      "type": "function"
    },
    {
      "constant": true,
      "inputs": [
        {
          "internalType": "uint256",
          "name": "",
          "type": "uint256"
        }
      ],
      "name": "players",
      "outputs": [
        {
          "internalType": "address",
          "name": "",
          "type": "address"
        }
      ],
      "payable": false,
      "stateMutability": "view",
      "type": "function"
    },
    {
      "constant": true,
      "inputs": [],
      "name": "totalBets",
      "outputs": [
        {
          "internalType": "uint256",
          "name": "",
          "type": "uint256"
        }
      ],
      "payable": false,
      "stateMutability": "view",
      "type": "function"
    },
    {
      "constant": true,
      "inputs": [],
      "name": "winningChoice",
      "outputs": [
        {
          "internalType": "string",
          "name": "",
          "type": "string"
        }
      ],
      "payable": false,
      "stateMutability": "view",
      "type": "function"
    },
    {
      "constant": false,
      "inputs": [
        {
          "internalType": "uint256",
          "name": "choice",
          "type": "uint256"
        }
      ],
      "name": "bet",
      "outputs": [],
      "payable": true,
      "stateMutability": "payable",
      "type": "function"
    },
    {
      "constant": false,
      "inputs": [
        {
          "internalType": "uint256",
          "name": "winningNum",
          "type": "uint256"
        }
      ],
      "name": "winner",
      "outputs": [],
      "payable": false,
      "stateMutability": "nonpayable",
      "type": "function"
    },
    {
      "constant": false,
      "inputs": [],
      "name": "fallback",
      "outputs": [],
      "payable": false,
      "stateMutability": "nonpayable",
      "type": "function"
    }
  ],
  "bytecode": "0x608060405260006001556000600355600060045534801561001f57600080fd5b50336000806101000a81548173ffffffffffffffffffffffffffffffffffffffff021916908373ffffffffffffffffffffffffffffffffffffffff160217905550610bee8061006f6000396000f3fe6080604052600436106100915760003560e01c80639619367d116100595780639619367d146101e4578063a3fcfd431461020f578063befa1e2f1461029f578063c75dbf9f146102ca578063f71d96cb146102f557610091565b80631cbeae5e14610096578063552079dc146100d15780637365870b146100e85780638b2088e9146101165780638da5cb5b1461018d575b600080fd5b3480156100a257600080fd5b506100cf600480360360208110156100b957600080fd5b8101908080359060200190929190505050610370565b005b3480156100dd57600080fd5b506100e6610738565b005b610114600480360360208110156100fe57600080fd5b810190808035906020019092919050505061073a565b005b34801561012257600080fd5b506101656004803603602081101561013957600080fd5b81019080803573ffffffffffffffffffffffffffffffffffffffff1690602001909291905050506108cf565b6040518084815260200183815260200182151515158152602001935050505060405180910390f35b34801561019957600080fd5b506101a2610906565b604051808273ffffffffffffffffffffffffffffffffffffffff1673ffffffffffffffffffffffffffffffffffffffff16815260200191505060405180910390f35b3480156101f057600080fd5b506101f961092b565b6040518082815260200191505060405180910390f35b34801561021b57600080fd5b50610224610930565b6040518080602001828103825283818151815260200191508051906020019080838360005b83811015610264578082015181840152602081019050610249565b50505050905090810190601f1680156102915780820380516001836020036101000a031916815260200191505b509250505060405180910390f35b3480156102ab57600080fd5b506102b46109ce565b6040518082815260200191505060405180910390f35b3480156102d657600080fd5b506102df6109d4565b6040518082815260200191505060405180910390f35b34801561030157600080fd5b5061032e6004803603602081101561031857600080fd5b81019080803590602001909291905050506109da565b604051808273ffffffffffffffffffffffffffffffffffffffff1673ffffffffffffffffffffffffffffffffffffffff16815260200191505060405180910390f35b600080905060008090505b6002805490508110156104b15782600660006002848154811061039a57fe5b9060005260206000200160009054906101000a900473ffffffffffffffffffffffffffffffffffffffff1673ffffffffffffffffffffffffffffffffffffffff1673ffffffffffffffffffffffffffffffffffffffff1681526020019081526020016000206001015414156104a4576001600660006002848154811061041c57fe5b9060005260206000200160009054906101000a900473ffffffffffffffffffffffffffffffffffffffff1673ffffffffffffffffffffffffffffffffffffffff1673ffffffffffffffffffffffffffffffffffffffff16815260200190815260200160002060020160006101000a81548160ff02191690831515021790555081806001019250505b808060010191505061037b565b5080600154816104bd57fe5b04600381905550600080600090505b6002805490508110156106665760066000600283815481106104ea57fe5b9060005260206000200160009054906101000a900473ffffffffffffffffffffffffffffffffffffffff1673ffffffffffffffffffffffffffffffffffffffff1673ffffffffffffffffffffffffffffffffffffffff16815260200190815260200160002060020160009054906101000a900460ff1680156105d05750600073ffffffffffffffffffffffffffffffffffffffff166002828154811061058c57fe5b9060005260206000200160009054906101000a900473ffffffffffffffffffffffffffffffffffffffff1673ffffffffffffffffffffffffffffffffffffffff1614155b1561061057600281815481106105e257fe5b9060005260206000200160009054906101000a900473ffffffffffffffffffffffffffffffffffffffff1691505b8173ffffffffffffffffffffffffffffffffffffffff166108fc6003549081150290604051600060405180830381858888f19350505050158015610658573d6000803e3d6000fd5b5080806001019150506104cc565b5060008090505b60028054905081101561072457600660006002838154811061068b57fe5b9060005260206000200160009054906101000a900473ffffffffffffffffffffffffffffffffffffffff1673ffffffffffffffffffffffffffffffffffffffff1673ffffffffffffffffffffffffffffffffffffffff16815260200190815260200160002060008082016000905560018201600090556002820160006101000a81549060ff02191690555050808060010191505061066d565b50600260006107339190610af3565b505050565b565b600134101561074857600080fd5b34600660003373ffffffffffffffffffffffffffffffffffffffff1673ffffffffffffffffffffffffffffffffffffffff1681526020019081526020016000206000018190555080600660003373ffffffffffffffffffffffffffffffffffffffff1673ffffffffffffffffffffffffffffffffffffffff168152602001908152602001600020600101819055506000600660003373ffffffffffffffffffffffffffffffffffffffff1673ffffffffffffffffffffffffffffffffffffffff16815260200190815260200160002060020160006101000a81548160ff0219169083151502179055503460016000828254019250508190555060046000815480929190600101919050555060023390806001815401808255809150509060018203906000526020600020016000909192909190916101000a81548173ffffffffffffffffffffffffffffffffffffffff021916908373ffffffffffffffffffffffffffffffffffffffff160217905550506003600454106108cc576108cb610a16565b5b50565b60066020528060005260406000206000915090508060000154908060010154908060020160009054906101000a900460ff16905083565b6000809054906101000a900473ffffffffffffffffffffffffffffffffffffffff1681565b600181565b60058054600181600116156101000203166002900480601f0160208091040260200160405190810160405280929190818152602001828054600181600116156101000203166002900480156109c65780601f1061099b576101008083540402835291602001916109c6565b820191906000526020600020905b8154815290600101906020018083116109a957829003601f168201915b505050505081565b60015481565b60045481565b600281815481106109e757fe5b906000526020600020016000915054906101000a900473ffffffffffffffffffffffffffffffffffffffff1681565b60006002600542600a4381610a2757fe5b060281610a3057fe5b0681610a3857fe5b0690506000811415610a91576040518060400160405280600581526020017f486561647300000000000000000000000000000000000000000000000000000081525060059080519060200190610a8f929190610b14565b505b6001811415610ae7576040518060400160405280600581526020017f5461696c7300000000000000000000000000000000000000000000000000000081525060059080519060200190610ae5929190610b14565b505b610af081610370565b50565b5080546000825590600052602060002090810190610b119190610b94565b50565b828054600181600116156101000203166002900490600052602060002090601f016020900481019282601f10610b5557805160ff1916838001178555610b83565b82800160010185558215610b83579182015b82811115610b82578251825591602001919060010190610b67565b5b509050610b909190610b94565b5090565b610bb691905b80821115610bb2576000816000905550600101610b9a565b5090565b9056fea265627a7a723158205997e1c39fc295ab90289d63266819927f34b870ec733fae5e54272c7472836264736f6c63430005100032",
  "source": "pragma solidity ^0.5.16;\n\n\ncontract Casino {\n\n    address public owner;\n    uint constant public minBet = 1;\n    uint public totalBets = 0;\n    address[] public players ;\n    uint payout = 0;\n    uint public numOfBets = 0;\n    string public winningChoice;\n\n\n\n\n    struct Player{\n        uint bet;\n        uint choice;\n        bool winnerFlag;\n    }\n\n    mapping(address => Player) public playerInputs;\n    \n    constructor () public {\n        owner = msg.sender;\n    }\n\n    function bet(uint choice) public payable{\n        require(msg.value >= minBet);\n        playerInputs[msg.sender].bet = msg.value;\n        playerInputs[msg.sender].choice = choice;\n        playerInputs[msg.sender].winnerFlag = false;\n        totalBets += msg.value;\n        numOfBets ++;\n        players.push(msg.sender);\n        if(numOfBets >= 3) generateRandom();\n    }\n\n    function winner(uint winningNum)public {\n        uint totalWinners = 0;\n        for(uint i = 0; i < players.length; i++){\n            \n            if(playerInputs[players[i]].choice == winningNum){\n                playerInputs[players[i]].winnerFlag = true;\n                totalWinners++;\n            }\n        }\n        payout = totalBets/totalWinners;\n        address payable playerAddr;\n        for(uint i = 0; i < players.length; i++){\n            if(playerInputs[players[i]].winnerFlag && players[i] != address(0))\n                playerAddr = address(uint160(players[i]));\n                playerAddr.transfer(payout);\n        }\n        for(uint i = 0; i < players.length; i++){\n            delete playerInputs[players[i]];\n        }\n        delete players;\n    }   \n\n    function generateRandom() private {\n        uint256 win= (block.number %10 * block.timestamp%5) %2;\n        if(win == 0) winningChoice = \"Heads\";\n        if(win == 1) winningChoice = \"Tails\";\n        winner(win);\n    }\n    function fallback() public {}\n}",
  "sourcePath": "/Users/mosescj/CS458/my-app/contracts/game.sol",
  "compiler": {
    "name": "solc",
    "version": "0.5.16+commit.9c3226ce.Emscripten.clang"
  },
  "schemaVersion": "3.4.13",
  "updatedAt": "2023-04-29T02:27:14.418Z",
  "devdoc": {
    "methods": {}
  },
  "userdoc": {
    "methods": {}
  }
}